:100175001200F28F19E51960F77F647E00120153B2
:0C018500E519FD7C007F0112008F80E472
:10019100EF1FAC0670011E4C600A7D027CEFDCFE95
:0401A100DDFC80EC15
:0101A5002237
:1000F200E4F51C20B1137F14FE12019130B1FD7F93
:10010200147E00120191751C0120B0147F147E0030
:1001120012019130B0FD7F147E00120191751C0214
:1001220020B2147F147E0012019130B2FD7F147E42
:1001320000120191751C0320B3147F147E0012017A
:100142009130B3FD7F147E00120191751C04AF1C27
:01015200228A
:1001A60011083F065B4F666D7D077F6F777C395E72
:0301B6007971005C
:10008F00EF14B4080050549000A475F003A4C58376
:10009F0025F0C583730200BC0200C00200C4020039
:1000AF00C80200CC0200D40200DC0200E4D2A4801B
:1000BF000ED2A48012D2A48016D2A4801AC2A4D2C7
:1000CF00A3D2A28016C2A4D2A3C2A2800EC2A4C27F
:1000DF00A3D2A28006C2A4C2A3C2A274082DF8E6BE
:0300EF00F5802277
:0501BA00007FE3DFFE01
:0101BF00221D
:04015300AD07AC0642
:10015700E4FBFAED25E0FFEC33FEC3EB9FEA9E508C
:0D0167000CB2A51201BA0BBB00010A80E624
:010174002268
:03000000020003F8
:0C000300787FE4F6D8FD75811C02004AED
:10000F00020175E493A3F8E493A34003F68001F291
:10001F0008DFF48029E493A3F85407240CC8C333F2
:10002F00C4540F4420C8834004F456800146F6DFC1
:10003F00E4800B01020408102040809001A6E47EAA
:10004F00019360BCA3FF543F30E509541FFEE493B6
:10005F00A360010ECF54C025E060A840B8E493A37D
:10006F00FAE493A3F8E493A3C8C582C8CAC583CAA8
:10007F00F0A3C8C582C8CAC583CADFE9DEE780BE60
:0101B9000045
:00000001FF
