:0B02E50041444A204E54432052470081
:100097001202B67BFF7A0279E57D017F0112022DFC
:1000A7007F9C1200F58E228F23750C03AB23AA22A7
:1000B7007D017F0212026E7FDC1200F58E228F23F4
:1000C700750C03AB23AA227D057F0212026E7FEC1B
:1000D7001200F58E228F23750C03AB23AA227D090C
:0E00E7007F0212026E7F0A7E001202A180B21A
:1002A100EF1FAC0670011E4C600A7D027CEFDCFE84
:0402B100DDFC80EC04
:0102B5002226
:0602CA00C2A58F80D2A73F
:0802D0007F027EEFDEFEDFFC81
:0102D8002203
:0A02F000C2A61202CAC2A70202D081
:10025000CFCDCFCECCCE1200427C007D0A12004220
:04026000ED2430FF5A
:0A026400D2A61202CAC2A70202D0FD
:10028B00AE07BE0104ED148006BE0209ED243F4407
:06029B0080FF1202F022B8
:1002B6007F381202F07F0C1202F07F061202F07FE6
:0402C600010202F03F
:0A02FA00AC0312028BAF0402026491
:06022D008B088A09890A12
:1002330012028BE4FDAB08AA09A90A8D827583001B
:0C024300120003FF60061202640D80E947
:01024F00228C
:0C01FA007F0AEA24FFFDE434FFFC7E00D5
:080206008E0D8F0E8C0F8D1080
:10020E007F017E00E4FBEBC39510E50F6480F8746C
:0E021E008098500AAC0DAD0E1200300B80E837
:01022C0022AF
:04026E008A0A8B0B62
:1002720012028BAA0CEAD39400400D1201FAAC0AC6
:08028200AD0B1202501A80EDD1
:01028A002251
:10014F0012028BC3EA64809480400B7F2B120264EF
:10015F008A168B17800E7F2D120264C3E49BF5174E
:10016F00E49AF516AA15EAD39400400D1201FAACE1
:09017F0016AD171202501A80EDB2
:010188002254
:040189008A1A8B1B28
:10018D0012028BAA1CEAD3940040297F101201FCA5
:10019D00AC1AAD1BCFCDCFCECCCE120042EF540F4B
:1001AD00FEC3940AEE5004243080022437FF12025D
:0401BD00641A80D16F
:0101C100221B
:0401C2008A1F8B20E5
:1001C60012028BAA21EAD394004028EA24FFFDE418
:1001D60034FFFC7F027E00120206AC1FAD20CFCD9D
:1001E600CFCECCCE120042EF54012430FF1202646F
:0301F6001A80D29A
:0101F90022E3
:0200F500AD0755
:1000F700E4F508F509C2B5C2B6FB74807E00A80313
:10010700088006CEA2E713CE13D8F8FFEDF582EFED
:10011700558224FF92B4D2B6C2B60BBB08DCE4FB0F
:10012700D2B6C2B630B714E47E80A803088005CEE5
:10013700C313CE13D8F94209EE42080BBB10E1D224
:07014700B5EDE508FF7E00A5
:01014E00228E
:030000000202D920
:0C02D900787FE4F6D8FD758123020097C1
:10000300BB010CE58229F582E5833AF583E02250B2
:1000130006E92582F8E622BBFE06E92582F8E222FC
:0D002300E58229F582E5833AF583E4932216
:10003000EF8DF0A4A8F0CF8CF0A428CE8DF0A42EE4
:02004000FE229E
:10004200BC000BBE0029EF8DF084FFADF022E4CCA2
:10005200F875F008EF2FFFEE33FEEC33FCEE9DEC6B
:10006200984005FCEE9DFE0FD5F0E9E4CEFD22EDB1
:10007200F8F5F0EE8420D21CFEADF075F008EF2FFB
:10008200FFED33FD4007985006D5F0F222C398FDEC
:050092000FD5F0EA2289
:00000001FF
