:10015E001201C9751B051200FD8F1CE51C64017090
:10016E0023051E531E03E51E7002F51BE51EB4018A
:10017E0003751B32E51EB40203751B4BE51EB4035B
:10018E0003751B64E51EFD7C007F0112009A80C67C
:03000B0002019E51
:06019E00C0E0C0F0C0D07B
:1001A400758A9C758CFF051DE51D75F0648485F0CA
:0E01B4001DE51DC3951B5004D2908002C29021
:0701C200D0D0D0F0D0E032F4
:1001E000EF1FAC0670011E4C600A7D027CEFDCFE46
:0401F000DDFC80ECC6
:0101F40022E8
:1000FD00E4F51F20B1137F14FE1201E030B1FD7F36
:10010D00147E001201E0751F0120B0147F147E00D3
:10011D001201E030B0FD7F147E001201E0751F0268
:10012D0020B2147F147E001201E030B2FD7F147EE8
:10013D00001201E0751F0320B3147F147E0012011D
:10014D00E030B3FD7F147E001201E0751F04AF1F78
:01015D00227F
:1001C9005389F0438901758A9C758CFFC28DD28C45
:0701D900D2A9D2AFC2B92286
:1001F50011083F065B4F666D7D077F6F777C395E23
:030205007971000C
:10009A00EF14B4080050549000AF75F003A4C58360
:1000AA0025F0C583730200C70200CB0200CF02000D
:1000BA00D30200D70200DF0200E70200EFD2A480D9
:1000CA000ED2A48012D2A48016D2A4801AC2A4D2BC
:1000DA00A3D2A28016C2A4D2A3C2A2800EC2A4C274
:1000EA00A3D2A28006C2A4C2A3C2A274082DF8E6B3
:0300FA00F580226C
:0300000002000EED
:0C000E00787FE4F6D8FD75811F020055D4
:10001A0002015EE493A3F8E493A34003F68001F29D
:10002A0008DFF48029E493A3F85407240CC8C333E7
:10003A00C4540F4420C8834004F456800146F6DFB6
:10004A00E4800B01020408102040809001F5E47E50
:10005A00019360BCA3FF543F30E509541FFEE493AB
:10006A00A360010ECF54C025E060A840B8E493A372
:10007A00FAE493A3F8E493A3C8C582C8CAC583CA9D
:10008A00F0A3C8C582C8CAC583CADFE9DEE780BE55
:0102080000F5
:00000001FF
