:100189001201B3E4F51D851D1B7F0A7E001201CA09
:10019900051DE51DC3946440ED751D64E51DD394EB
:0A01A9000040E0851D1B151D80F2CB
:03000B0002015E91
:06015E00C0E0C0F0C0D0BB
:10016400758A9C758CFF051CE51C75F0648485F00C
:0E0174001CE51CC3951B5004D2A18002C2A141
:07018200D0D0D0F0D0E03234
:1001CA00EF1FAC0670011E4C600A7D027CEFDCFE5C
:0401DA00DDFC80ECDC
:0101DE0022FE
:1000FD00E4F51E20B1137F14FE1201CA30B1FD7F4D
:10010D00147E001201CA751E0120B0147F147E00EA
:10011D001201CA30B0FD7F147E001201CA751E0295
:10012D0020B2147F147E001201CA30B2FD7F147EFE
:10013D00001201CA751E0320B3147F147E00120134
:10014D00CA30B3FD7F147E001201CA751E04AF1EA6
:01015D00227F
:1001B3005389F0438901758A9C758CFFC28DD28C5B
:0701C300D2A9D2AFC2B9229C
:1001DF0011083F065B4F666D7D077F6F777C395E39
:0301EF0079710023
:10009A00EF14B4080050549000AF75F003A4C58360
:1000AA0025F0C583730200C70200CB0200CF02000D
:1000BA00D30200D70200DF0200E70200EFD2A480D9
:1000CA000ED2A48012D2A48016D2A4801AC2A4D2BC
:1000DA00A3D2A28016C2A4D2A3C2A2800EC2A4C274
:1000EA00A3D2A28006C2A4C2A3C2A274082DF8E6B3
:0300FA00F580226C
:0300000002000EED
:0C000E00787FE4F6D8FD75811E020055D5
:10001A00020189E493A3F8E493A34003F68001F272
:10002A0008DFF48029E493A3F85407240CC8C333E7
:10003A00C4540F4420C8834004F456800146F6DFB6
:10004A00E4800B01020408102040809001DFE47E66
:10005A00019360BCA3FF543F30E509541FFEE493AB
:10006A00A360010ECF54C025E060A840B8E493A372
:10007A00FAE493A3F8E493A3C8C582C8CAC583CA9D
:10008A00F0A3C8C582C8CAC583CADFE9DEE780BE55
:0101F200000C
:00000001FF
