:10096B00543A0054483A00544C3A004F563A480017
:0A097B004F563A4C002020202000C7
:10046D00120A2F7FE87E031209F7E4FF1207EF8FC0
:10047D000F7F011207EF8F0AD3E50F648094FD50B3
:10048D0016C3E50A64809449400DD3E50A6480F8EB
:10049D00E50F6480985006750F14750A0F120A0C3B
:1004AD007BFF7A09796B7D017F011208987BFF7ABA
:1004BD0009796E7D017F021208987BFF7A097972A6
:1004CD007D097F02120898E50FFB3395E0FA751947
:1004DD00037D047F021206D8E50AFB3395E0FA7519
:1004ED0019037D0C7F021206D812099E120A7B8F0A
:1004FD0010120A2F12081F8F0E8E0D8D0C8C0BE40F
:10050D00FFFEFDFCAB0EAA0DA90CA80B1201B450F9
:10051D001E7B2D7D037F01120A68AF0EAE0DAD0C53
:10052D00AC0B12022D8F148E138D128C1180157B36
:10053D002B7D037F01120A68850E14850D13850C22
:10054D0012850B11AF14AE13AD12AC1112027CABB0
:10055D0007AA067519037D047F011209157B2E7DEF
:10056D00077F01120A68E4FFFE7DC87C42AB14AA26
:10057D0013A912A81112000E12027CE47B64FAF981
:10058D00F81203CD7519027D087F01120915E510CA
:10059D006050B4010E050FD3E50F648094FD400348
:1005AD00750F7DE510B40211150FD3E50A6480F8BF
:1005BD00E50F6480985002050FE510B40311050A8C
:1005CD00C3E50F6480F8E50A6480984002150AE5DA
:1005DD0010B4040E150AC3E50A64809449500375DE
:1005ED000AC9E50FFB3395E0FA7519037D047F0207
:1005FD001206D8E50AFB3395E0FA7519037D0C7FD9
:10060D00021206D8E50FFD3395E0FCE4FF120874E5
:10061D007F057E001209F7E50AFD3395E0FC7F01A9
:10062D00120874AC0FEC120248AB0EAA0DA90CA85F
:10063D000B1201B4600A40087BFF7A0979768019A4
:10064D00AC0AEC120248AB0EAA0DA90CA80B1201B4
:10065D00B450107BFF7A09797B7D0D7F01120898CC
:10066D000204F97BFF7A0979807D0D7F01120898CC
:03067D000204F97B
:03000B000206806A
:10068000C0E0C0F0C083C082C0D075D000C000C040
:0D06900001C002C003C004C005C006C007C1
:10069D00758A66758CFC0509E50970020508C39419
:1006AD0014E5089400400975080075090012074B00
:1006BD00D007D006D005D004D003D002D001D00091
:0B06CD00D0D0D082D083D0F0D0E0323B
:100874008F158C168D17120A727FA012084B120A5C
:100884003CAF1512084B120A3CAF1712084B120A60
:040894003C0200031F
:0207EF008F1564
:1007F100120A727FA012084B120A3CAF1512084B65
:10080100120A3C120A727FA112084B120A3C12080A
:0D081100BB8F167F01120A54120003AF16B0
:01081E0022B7
:1009F700EF1FAC0670011E4C600A7D027CEFDCFE27
:040A0700DDFC80ECA6
:010A0B0022C8
:090A7200D2A0D2A1C2A0C2A122AF
:07000300C2A0D2A1D2A0228D
:02084B00AD07F7
:10084D00E4FB74807E00A803088006CEA2E713CED9
:10085D0013D8F8FFEDF582EF558224FF92A0D2A1B7
:06086D00C2A10BBB08DC78
:010873002262
:1008BB00E4FFD2A0FED2A130A00D7480A806088060
:0D08CB0002C313D8FC4207C2A10EBE08E80C
:0108D80022FD
:0A0A5400EF24FF92A0D2A1C2A1225C
:0B0A3C00D2A0D2A1A2A0E433FFC2A10F
:010A4700228C
:060A2000C2A58F80D2A7E1
:080A26007F027EEFDEFEDFFC23
:010A2E0022A5
:0A0A5E00C2A6120A20C2A7020A264F
:1008D900CFCDCFCECCCE12033C7C007D0A12033C97
:0408E900ED2430FFCB
:0A08ED00D2A6120A20C2A7020A26B2
:1009B500AE07BE0104ED148006BE0209ED243F44D6
:0609C50080FF120A5E2211
:100A0C007F38120A5E7F0C120A5E7F06120A5E7F26
:040A1C0001020A5E6B
:0A0A6800AC031209B5AF040208ED5B
:060898008B158A1689177A
:10089E001209B5E4FDAB15AA16A9178D8275830052
:0C08AE001202FDFF60061208ED0D80E94B
:0108BA00221B
:0C07BC007F0AEA24FFFDE434FFFC7E000D
:0807C8008E1C8F1D8C1E8D1F7D
:1007D0007F017E00E4FBEBC3951FE51E6480F87487
:0E07E0008098500AAC1CAD1D12032A0B80E855
:0107EE0022E8
:040915008A178B189A
:100919001209B5AA19EAD39400400D1207BCAC1705
:08092900AD181208D91A80ED87
:0109310022A3
:1006D8001209B5C3EA64809480400B7F2B1208EDA1
:1006E8008A1A8B1B800E7F2D1208EDC3E49BF51B25
:1006F800E49AF51AAA19EAD39400400D1207BCAC83
:090708001AAD1B1208D91A80ED8C
:0107110022C5
:040712008A228B2389
:100716001209B5AA24EAD3940040297F101207BE15
:10072600AC22AD23CFCDCFCECCCE12033CEF540FAF
:10073600FEC3940AEE5004243080022437FF1208C8
:04074600ED1A80D157
:01074A00228C
:040784008A278B280D
:100788001209B5AA29EAD394004028EA24FFFDE417
:1007980034FFFC7F027E001207C8AC27AD28CFCDFE
:1007A800CFCECCCE12033CEF54012430FF1208ED1B
:0307B8001A80D2D2
:0107BB00221B
:0D0A2F001208F77FCC1209857F440209856B
:10081F001208F77FCC1209857FBE120985120932A3
:10082F008F15120932EFFEE515FFFDAC06EC120233
:0B083F0043E4FBFA79807841120117B6
:01084A00228B
:1008F700C2AFD2B7C2B77FE6DFFED2B77F20DFFE37
:0D090700A2B7E433FE7FE6DFFED2AFAF06FD
:0109140022C0
:1009CB00C2AFC2B77E04DEFEEF24FF92B77E17DE06
:0509DB00FED2B7D2AF0F
:0109E00022F4
:10094F00C2AFC2B77F02DFFED2B77F02DFFEA2B710
:0B095F00E433FE7F17DFFED2AFAF06CF
:01096A00226A
:02098500AD07BC
:10098700E4FC7401A804088002C333D8FC5DFF129D
:0609970009CB0CBC08ECCA
:01099D002237
:10093200E4FDFC12094FEF600D7401A80408800267
:0C094200C333D8FC42050CBC08E9AF052B
:01094E002286
:050A7B00E4AF2CF52C96
:010A80002253
:1009E100E4FF20B1010F20B0027F0220B2027F0399
:0509F10020B3027F04A9
:0109F60022DE
:10074B00852A2B1209E18F2AE52BB40107E52A70C4
:10075B0003752C01E52BB40207E52A7003752C02F7
:10076B00E52BB40307E52A7003752C03E52BB404C2
:08077B0007E52A7003752C0448
:010783002253
:10099E005389F0438901758A66758CFCC28DD28CA1
:0709AE00D2A9D2AFC2B922A9
:10000E00EC4D6011E8497017ED33EC3304600DE4EC
:10001E00FCFFFEFD22E933E8330470F80202E81219
:10002E0002B358046009E4CC24815006285009021A
:10003E0002F22840030202EFC0E0EB4A7044B9809E
:10004E0006D0E0FB0202DEEF4E701CBD8008EBFF17
:10005E00EAFEE9FD80EBE98DF0A4FEE5F00200F783
:10006E00E9CDF9EAFEEBFFEF89F0A4FCE5F0CE89CD
:10007E00F0A42EFFE435F0CD89F0A42DFEE435F08A
:10008E008067EF4E7005BD80D780C3EF8BF0A4ACB8
:10009E00F0EE8BF0A42CFCE435F0F8EF8AF0A42CF3
:1000AE00E5F038FCE433CB8DF0A42CFCE5F03BF806
:1000BE00EE8AF0A42CFCE5F038F8E433CF89F0A4F6
:1000CE002CFCE5F038CF3400CE89F0A42FFFE5F0FC
:1000DE003EFEE433C98DF0A42EFEE5F039CD8AF054
:1000EE00A42FFFE5F03EFEE43DFD33D0E0FB5007CC
:1000FE000BBB000F0202F2EC2CFCEF33FFEE33FED3
:06010E00ED33FD0202CA00
:100114000202F2EC5D046005E8590470030202E88F
:100124001202B3580460F6EC4860F2EC7004FDFE71
:10013400FF22C860DB2481C85009C39860025006BE
:100144000202EF9850CAF582E9294B4A7005AB8246
:100154000202DE75F0007C1A7880C3EF9BEE9AED04
:1001640099400DC3EF9BFFEE9AFEED99FDE842F036
:10017400DC23ACF0D0E0FFD0E0FED0E0FDAB822089
:10018400E7101BEB60BAEC2CFCEF33FFEE33FEED13
:1001940033FD0202CAE803F830E705C0F075F00049
:1001A400EF2FFFEE33FEED33FD40B830E7C280AAF7
:1001B40074F8CC6480CCC86480C8F58204604FC3F2
:1001C400EB9FF5F0EA9E42F0E99D42F0E89C45F091
:1001D400603C501DE5825FFFE582D313CB5BCBF41B
:1001E4002B5582FB50280ABA002409B90020088044
:1001F4001DE5825BFBE582D313CF5FCFF4C3132FDE
:100204005582FF50090EBE00050DBD00010CC3EB65
:100214009FF5F0EA9E42F0E99D42F0E89C45F060CB
:0902240007CC4820E701B3EC22ED
:10022D00ED33EC33600A047003BD8004ECB2E7FCDF
:01023D00229E
:10023E0075F020800E75F010800575F0087D007E3B
:10024E00007F003392D530D50312045FEC3340109B
:10025E00EF33FFEE33FEED33FDEC33FCD5F0ED2244
:0E026E00E5F0247EA2D513CC92E7CDCEFF2280
:10027C00EDD2E7CD33EC3392D524814006E4FFFE7A
:10028C00FDFC22FCE4CFCECDCC24E0501174FF80D9
:10029C00EDC3CC13CCCD13CDCE13CECF13CF047076
:0702AC00F030D5DE02045F13
:1002B300E9D2E7C933E833F892D5EDD2E7CD33EC91
:0702C30033FC5002B2D5220A
:1002CA00EC30E7100FBF000C0EBE00080DBD000495
:1002DA000BEB6014A2D5EB13FCED92E7FD2274FF41
:1002EA00FCFDFEFF22E480F8A2D574FF13FC7D809A
:0302FA00E480EFAE
:03000000020A48A9
:0C0A4800787FE4F6D8FD75812C02046D67
:1002FD00BB010CE58229F582E5833AF583E02250B6
:10030D0006E92582F8E622BBFE06E92582F8E222FF
:0D031D00E58229F582E5833AF583E4932219
:10032A00EF8DF0A4A8F0CF8CF0A428CE8DF0A42EE7
:02033A00FE22A1
:10033C00BC000BBE0029EF8DF084FFADF022E4CCA5
:10034C00F875F008EF2FFFEE33FEEC33FCEE9DEC6E
:10035C00984005FCEE9DFE0FD5F0E9E4CEFD22EDB4
:10036C00F8F5F0EE8420D21CFEADF075F008EF2FFE
:10037C00FFED33FD4007985006D5F0F222C398FDEF
:05038C000FD5F0EA228C
:1003910075F008758200EF2FFFEE33FECD33CDCC23
:1003A10033CCC58233C5829BED9AEC99E5829840A6
:1003B1000CF582EE9BFEED9AFDEC99FC0FD5F0D683
:1003C100E4CEFBE4CDFAE4CCF9A88222B800C1B9AD
:1003D1000059BA002DEC8BF084CFCECDFCE5F0CBEB
:1003E100F97818EF2FFFEE33FEED33FDEC33FCEB24
:1003F10033FB10D703994004EB99FB0FD8E5E4F9DF
:10040100FA227818EF2FFFEE33FEED33FDEC33FCCB
:10041100C933C910D7059BE99A4007EC9BFCE99ABF
:10042100F90FD8E0E4C9FAE4CCFB2275F010EF2F04
:10043100FFEE33FEED33FDCC33CCC833C810D70704
:100441009BEC9AE899400AED9BFDEC9AFCE899F83F
:0E0451000FD5F0DAE4CDFBE4CCFAE4C8F922D2
:0E045F00C3E49FFFE49EFEE49DFDE49CFC22AE
:00000001FF
